:100000000C9466000C94C8040C94C8040C94C804A6
:100010000C94C8040C94C8040C94C8040C94C80430
:100020000C94C8040C94C8040C94C8040C94C80420
:100030000C94C8040C94C8040C9490000C94C8044C
:100040000C94C8040C94C8040C94C8040C94C80400
:100050000C94C8040C94C8040C94C8040C94C804F0
:100060000C94C8040C94C8040C94C8040C94C804E0
:100070000C94C8040C94C8040C94C8040C94C804D0
:100080000C94C8040C94C8040C94C8040C94C804C0
:100090000C94C8040C94C8040C94C8040C94C804B0
:1000A0000C94C8040C94C8040C94C8040C94C804A0
:1000B0000C94C804010001420009940142015080DF
:1000C000015001520009D60152015E8011241FBE69
:1000D000CFEFD8E0DEBFCDBFE4EBF0E040E017C0EB
:1000E000B591A59135912591059107FD0CC095918C
:1000F0008591EF01F92FE82F05900D92A217B30714
:10010000D9F7FE0104C01D92A217B307E1F7EC3C3A
:10011000F40731F70E94A1040C948E00F894FFCFED
:100120001F920F920FB60F9211242F933F934F936C
:100130005F936F937F938F939F93AF93BF93EF934F
:10014000FF9380914C0190914D01019690934D0148
:1001500080934C010E94B904892B11F180914601D2
:1001600090914701892BE1F481E090E09093470161
:10017000809346018091460190914701009759F084
:1001800080914E0190914F0131E020E0892B09F4DC
:1001900030E0832F922F909359018093580125C00E
:1001A0000E94BE04892B09F180914601909147017C
:1001B000892BD9F482E090E0909347018093460127
:1001C0008091460190914701009759F080914E012E
:1001D00090914F0131E020E0892B09F430E0832F2A
:1001E000922F90935901809358010E94C304892B48
:1001F00051F08091540190915501019690935501D1
:100200008093540137C08091520190915301892B02
:1002100069F181E090E090935D0180935C018091B1
:1002200054019091550190935B0180935A01809104
:100230005C0190915D01892B31F080914E0190918C
:100240004F01892B69F080915A0190915B0131E057
:1002500020E08C3D95400CF430E0832F922F02C0BB
:1002600081E090E0909357018093560110925501E0
:100270001092540180915401909155019093530133
:1002800080935201FF91EF91BF91AF919F918F9118
:100290007F916F915F914F913F912F910F900FBE82
:0602A0000F901F9018955D
:1002A600CF93DF938091560190915701892B69F482
:1002B6008091560190915701892B61F580914E01ED
:1002C60090914F01892B59F125C00E94A0023EC092
:1002D60080914E0190914F01892BE1F4CE010E944D
:1002E6005403E0915001F0915101EE0FFF1FE45CC1
:1002F600FE4F808191810E940002CE010E94E7029A
:100306002196CA30D10531F080915601909157015E
:10031600892BF1F288E893E10E94000217C080E081
:1003260090E00E945403E0915001F0915101EE0FCC
:10033600FF1FE45CFE4F808191810E94000280E0F5
:1003460090E00E94E702C1E0D0E0DECFDF91CF91DE
:02035600089508
:100358000F931F93CF93DF93E0915001F0915101D8
:10036800EE0FFF1FE45CFE4F00811181C0E0D0E07A
:100378000E94A002CE010E9454030E940D04C801ED
:100388000E9400020E940D04CE010E94E7028091A3
:10039800480190914901892B29F010924901109246
:1003A800480122C02196CA30D10511F71DC00E940C
:1003B800A002CE010E9454030E940D04C8010E94AD
:1003C80000020E940D04CE010E94E70280914801BC
:1003D80090914901892B29F0109249011092480106
:1003E80006C0219721F703C0C8E0D0E0E0CFDF9135
:0803F800CF911F910F910895B0
:10040000CF93DF9300D0CDB7DEB79A838983209155
:100410004C0130914D0189819A81280F391F81E06B
:1004200090E090934B0180934A0180914A01909112
:100430004B01892B69F180914C0190914D01281756
:10044000390734F18091560190915701892B01F5BC
:100450008091580190915901892BD1F4000080912D
:100460004A0190914B01892B99F080914C01909118
:100470004D012817390764F080915601909157017A
:10048000892B31F48091580190915901892B31F3D6
:1004900010924B0110924A010F900F90DF91CF9173
:0204A0000895BD
:1004A200CF92DF92EF92FF920F931F93CF93DF933E
:1004B200EC016B017A0100E010E0C8010E94E70242
:1004C2000F5F1F4F0A301105C1F780E991E00E94CA
:1004D2000002EC9C8001ED9C100DFC9C100D11247F
:1004E2000C0F1D1FC017D10761F0CE010E945403EB
:1004F20080E991E00E940002CE0DDF1D0C171D075E
:10050200A1F788EE93E00E940002C0E0D0E0CE01A5
:100512000E94E7022196CA30D105C9F780E991E02D
:100522000E94000210924B0110924A01DF91CF917A
:0E0532001F910F91FF90EF90DF90CF900895F2
:10054000109257011092560180915C0190915D01CB
:10055000892BB9F080915A0190915B018C3D9540B7
:1005600084F010925B0110925A0180914E0190919B
:100570004F01892B19F00E947A0424C00E9439048B
:1005800021C080915C0190915D01892BD9F080910F
:100590004E0190914F01892BA9F4809150019091C7
:1005A0005101019690935101809350018091500127
:1005B00090915101039724F0109251011092500133
:0E05C0000E941E0310925D0110925C010895CE
:1005CE00CF93DF93880F991FFC01E85DFE4FA0814A
:1005DE00B181FC01EC5EFE4FC081D181FC01E05087
:1005EE00FF4F8081918121E030E0A90102C0440FCC
:1005FE00551F8A95E2F7CA018095909548815981D9
:10060E0084239523998388838081918102C0220F50
:10061E00331F8A95E2F7209530958D919C91119715
:0E062E00282339232D933C93DF91CF9108951B
:10063C00CF93DF9310924B0110924A01C0E0D0E0AF
:10064C00CE010E94E7022196CA30D105C9F78091EC
:10065C0050019091510199236CF0C0E0D0E0CE0193
:10066C000E945403219680915001909151018C1756
:10067C009D07ACF788EE93E00E940002C0E0D0E04A
:10068C00CE010E94E7022196CA30D105C9F784EF4A
:0C069C0091E00E940002DF91CF910895D0
:1006A800CF93DF93880F991FFC01E85DFE4FA0816F
:1006B800B181FC01EC5EFE4FC081D181FC01E050AC
:1006C800FF4F8081918121E030E0A90102C0440FF1
:1006D800551F8A95E2F7CA0148815981842B952BC9
:1006E800998388838081918102C0220F331F8A9564
:1006F800E2F78D919C911197282B392B2D933C93E0
:06070800DF91CF9108957E
:10070E0089E090E00E946104892B11F180914401EF
:10071E00909145010196909345018093440160911B
:10072E004401709145014FEF5FEF89E090E00E9428
:10073E00510280914401909145010A9769F40E94FB
:10074E00E10381E090E09093490180934801089580
:0A075E0080E991E00E940002089576
:1007680080E090E00E946104892B11F180914201A0
:1007780090914301019690934301809342016091C7
:1007880042017091430141E050E080E090E00E9416
:10079800510280914201909143010A9769F40E94A5
:1007A800E10381E090E09093490180934801089526
:0A07B8008CEB92E00E94000208950D
:1007C2000F931F93CF93DF930BE010E01BC0CE017A
:1007D2000E9454032196CA30D105C9F786E990E0F8
:1007E2000E940002C0E0D0E0CE010E94E702219602
:1007F200CA30D105C9F786E990E00E940002015093
:10080200110919F0C0E0D0E0E2CF0E947A04DF9132
:08081200CF911F910F91089591
:10081A001092590110925801809146019091470116
:10082A00892BE9F080914E0190914F01892BB9F003
:10083A008091460190914701019719F40E9487031C
:10084A0008C08091460190914701029711F40E94D5
:10085A00B40381E090E0909349018093480110929B
:08086A004701109246010895B8
:10087200CF93DF9381E090E0909349018093480108
:1008820090934F0180934E010E94AF04C0E0D0E0EC
:10089200CE010E94E7022196CA30D105C9F70E9413
:1008A200920410924B0110924A011092450110924B
:1008B20044011092430110924201DF91CF910895B9
:1008C200880F991FFC01E85DFE4F0190F081E02D39
:1008D20020813181FC01E050FF4F4081518181E054
:1008E20090E002C0880F991F4A95E2F78223932372
:0208F200089567
:1008F400CF93DF9310924F0110924E010E94AF04E8
:10090400C0E0D0E0CE010E94E7022196CA30D105B2
:10091400C9F710924B0110924A01DF91CF910895CB
:1009240084B5826084BD81E187BDEEE6F0E080811C
:0E0934008260808385B5856085BD78940895C6
:100942000E94920480914E0190914F01892B19F0DF
:0C0952000E94AC01F7CF0E945301F4CFCB
:10095E00289A409A589A209A389A509A189A309A09
:04096E00489A089506
:0A097200509A89B1817090E0089559
:0A097C003D9A86B1807290E0089564
:0A098600519A89B1827090E0089543
:040990000C940000C3
:100994000400030002000100000007000600050037
:0409A4000400030048
:1009A800240024002400240024002A002A002A000D
:0409B8002A002A00E7
:1009BC00250025002500250025002B002B002B00F1
:0409CC002B002B00D1
:0609D000960028000A0059
:0209D60001001E
:00000001FF
